:100742000A3D3D3D727820746573743D3D3D3D0A1E
:10075200000A0D20526563656965766520446174FF
:0A076200613A00256420000D0A0032
:10079600016C00016E00C113C112016B00016D00F6
:0607A600C1110248000031
:0B086E00D2AF1200031208790207DD70
:1004CF00E4F523F548F5491205521205521205526B
:1004DF0012086E7BFF7A077942120088120680D2CB
:1004EF009320B2FDE4FD7F071208008F2030064FE6
:1004FF000549E54970020548AD207F271208007BAA
:10050F00007A007910752B087F611206B37BFF7A92
:10051F00077953120088E4F5247BFF7A0779657415
:10052F00102524F8E6752A00F52B1200880524E51E
:10053F0024C3940840E37BFF7A077969120088B2DD
:03054F00A0809CED
:0A0879005395FC5396FC43960322AE
:05088D00E7E7E7E7A723
:0A07AC000818000707050805020100
:0C0854008F86E58430E7FB7584C0AF861A
:010860002275
:0707F9001208007D287F2596
:02080000AE0543
:10080200C294120854AD07AF06120854D294AF0531
:0108120022C3
:0C086100C294120854E4FF120854D29410
:01086D002268
:0606B3008B288A29892A28
:1006B900C294120854AE07E4FDEDC3952B5017E41C
:1006C900FF120854AB28AA29A92A8D82758300EF45
:0A06D9001203AF0D80E3D294AF06C8
:0106E30022F4
:0606E4008B288A29892AF7
:1006EA00C294120854AE07E4FDEDC3952B5015AB26
:1006FA0028AA29A92A8D82758300120382FF12086B
:08070A00540D80E5D294AF0606
:0107120022C4
:10071300C2937BFF7A08798D752B057F301206E42F
:100723007D057F3D1208007D037F231207F97D0FAE
:0F0733007F261208007D0E7F20120800D293222D
:10068000C2937BFF7A08798D752B057F2A1206E4C9
:100690007D017F3D1208007D017F221207F97D0850
:1006A0007F311208007D0F7F261208007D0F7F200A
:0306B0000208003D
:10083F008D2B7FB01206E47F287E817D017C001214
:05084F00060AD293220D
:1007DD007591407592B875B10575B202E4F58675DF
:0C07ED0084C07585D0C293D294C29722BC
:1000030053B1FC43B10553B2FC43B202758780750B
:0D0013009850758920758DEED28ED2AC22EA
:030023000205BB18
:0705BB00C0E0C0D075D008BC
:1005C20030991CC299796CE7786E666010786CE697
:1005D20006540F245BF8E6F599C2138002C212306A
:1005E2009821AF99C298786BE62410FDE433FC7829
:1005F2006DE66D7001EC600BE606540F244BF8A615
:030602000FC21113
:05060500D0D0D0E0326E
:10081300796DE7786B667002D211786BE606540F38
:06082300244BF8E6FF2261
:1007BA0020131F201205D2128F9922786EE6065452
:1007CA000F245BF8A607796EE7786C66540F7002FF
:0307DA00D2132215
:10082900AE072013FDBE0A057F0D1207BA2013FD7E
:06083900AF061207BA220F
:0307B600014A01F4
:0A0883005395DF4395205396DF22C2
:10076C00EF6003754A01E54A601720A5147FB47E3B
:10077C00077D007C0012060AE4F54A20A5097F01DA
:09078C002230A503754A017F002B
:010795002241
:08060A008F3E8E3D8D3C8C3BC0
:10061200E4F542F541F540F53FAF3EAE3DAD3CACB1
:100622003BAB42AA41A940A83FC31203D15017E5F0
:10063200422401F542E43541F541E43540F540E418
:06064200353FF53F80D3B7
:01064800228F
:020649008F43DD
:10064B00E4F547F546F545F544AF43E4FCFDFEAB59
:10065B0047AA46A945A844C31203D15017E547241E
:10066B0001F547E43546F546E43545F545E43544B3
:04067B00F54480D5ED
:01067F002258
:10055200E4F52AF529F528F527E47F03FEFDFCAB37
:100562002AAA29A928A827C31203D1504BE4F52EA1
:10057200F52DF52CF52BE47F32FEFDFCAB2EAA2DDA
:10058200A92CA82BC31203D15017E52E2401F52E56
:10059200E4352DF52DE4352CF52CE4352BF52B80A7
:1005A200D5E52A2401F52AE43529F529E43528F58B
:0805B20028E43527F52780A19C
:0105BA00221E
:03000000020443B4
:0C044300787FE4F6D8FD75816E02048A13
:10038200BB010CE58229F582E5833AF583E0225030
:1003920006E92582F8E622BBFE06E92582F8E2227A
:0D03A200E58229F582E5833AF583E4932294
:1003AF00F8BB010DE58229F582E5833AF583E8F084
:1003BF00225006E92582C8F622BBFE05E92582C830
:0203CF00F22218
:1003D100EB9FF5F0EA9E42F0E99D42F0E89C45F082
:0103E10022F9
:10002600E536242AF8E60536227827300F02782AA4
:10003600E475F00112040D0203E22008EB7F2ED2D4
:10004600088018EF540F2490D43440D4FF300C0BA2
:10005600EF24BFB41A0050032461FFE53760021590
:1000660037053AE53A70020539300F0D7827E47501
:10007600F00112040DEF0203FB0208297403D20FEC
:100086008003E4C20FF5368B278A288929E4F537E1
:10009600F539F53AE53760077F2012006180F5757E
:1000A60038FFC209C208C20AC20BC20DC20EC21074
:1000B60012002FFF700D300F057F00120072AF3A4D
:1000C600AE3922B4255FC2D5C20C12002FFF24D050
:1000D600B40A00501A75F00A783730D50508B6FF0D
:1000E6000106C6A426F620D5047002D20B80D924B8
:1000F600CFB41A00EF5004C2E5D20C020272D20944
:1001060080C6D20880C0D20A80BCD2D580BAD20DB1
:1001160080B47F20120061200A077401B5370040C1
:10012600F1120026FF12006102009AD210D20E8050
:1001360095120026FB120026FA120026F94A4B7089
:100146000679437A037BFF200A2EE537602A7E0074
:100156008E8275830012038260060EEE653870F09B
:10016600C2D5EBC0E0EAC0E0E9C0E0EE1202B9D0C9
:10017600E0F9D0E0FAD0E0FB1203E2FF60AAEBC0A0
:10018600E0EAC0E0E9C0E0120061D0E02401F9D065
:10019600E03400FAD0E0FBE5380460DCD538D980DD
:1001A600877BFF7A0279B5D20A809C791080027922
:1001B60008C20EC2108008D2D5790A8004790AC214
:1001C600D5E538047002F538E4FAFDFEFF12002684
:1001D600FC7B08200913120026FD7B1030080A124A
:1001E6000026FE120026FF7B20EC3382D592D550E6
:1001F60013C3E43008069FFFE49EFEE42009039D36
:10020600FDE49CFCE4CBF8C209EC700CCFCECDCC5F
:10021600E824F8F870F38017C3EF33FFEE33FEEDF2
:1002260033FDEC33FCEB33FB994002FB0FD8E9EBD3
:10023600300905F8D0E0C448B209C0E00AEC4D4EDA
:100246004F78207B0070C2EAB5380040BCC0E0128F
:1002560002BBD0F0D0E0200904C4C0E0C4B209C09B
:10026600F012004AD0F0D5F0EB02009A12041D01FC
:10027600375301B15801084C01044201B54F01BD85
:0F0286004401BD49011D4301C35501A74601A70E
:100295004501A747036350010C2D01102E01332B97
:1002A500011423013120034C2A00CC480000012B06
:1002B5003F3F3F00790AA2D5200B14300D09B91034
:1002C500020404B9080104A2D5200E02500104203D
:1002D5000A68920AB537005034C0E07F20300B1908
:1002E5007F30A20A720E720D500F120312C20AC29B
:1002F5000EC20DC2107F30800F300D03E9C0E01231
:100305000061300D03D0E0F9D0E0B537CC300D17E2
:100315007F30B9100C1200617F58300C077F788050
:1003250003B90803120061300A057F2D0200617FC1
:10033500202010F87F2B200EF322920A80CF286E02
:10034500756C6C2900D2091200263009F8C20978AB
:100355003730D50108F60200CC2D5043495812001C
:10036500262403B405004001E490035E9312005275
:0D037500743A120052D20B7537040201B128
:10044F000204CFE493A3F8E493A34003F68001F2F0
:10045F0008DFF48029E493A3F85407240CC8C333AE
:10046F00C4540F4420C8834004F456800146F6DF7D
:10047F00E4800B0102040810204080900796E47E70
:10048F00019360BCA3FF543F30E509541FFEE49372
:10049F00A360010ECF54C025E060A840B8E493A339
:1004AF00FAE493A3F8E493A3C8C582C8CAC583CA64
:1004BF00F0A3C8C582C8CAC583CADFE9DEE780BE1C
:0107B900003F
:1003E200BB010689828A83E0225002E722BBFE0219
:0903F200E32289828A83E493224C
:1003FB00BB010689828A83F0225002F722BBFE01E1
:02040B00F322DA
:10040D00FAE6FB0808E6F925F0F618E6CA3AF622F0
:10041D00D083D082F8E4937012740193700DA3A36E
:10042D0093F8740193F5828883E473740293686082
:06043D00EFA3A3A380DF82
:00000001FF
