:1007D9000A3D3D3D727820746573743D3D3D3D0A87
:0807E90000256420000D0A0048
:10075500016A00016C00C113C112016900016B003F
:06076500C1110246000074
:0B084C00D2AF1200031208570207BDD4
:1004CF00E4F523F546F5471205491205491205498A
:1004DF0012084C7BFF7A0779D91200881206D7D2FF
:1004EF009320B2FDE4FD7F071207AA8F203006EF9D
:1004FF000547E54770020546AD207F271207AA7B07
:10050F00007A0079107529087F61120677E4F524C7
:10051F007BFF7A0779EA74102524F8E6752800F531
:10052F00291200880524E524C3940840E37BFF7A51
:0A053F000779EE120088B2A080A533
:0A0857005395FC5396FC43960322D0
:05086B00E7E7E7E7A745
:0A076B000818000707050805020141
:0C0832008F86E58430E7FB7584C0AF863C
:01083E002297
:0E079C001207AA7D287F251207AA7D0F7F264F
:0207AA00AE059A
:1007AC00C294120832AD07AF06120832D294AF05CC
:0107BC00221A
:0C083F00C294120832E4FF120832D29476
:01084B00228A
:060677008B268A2789286A
:10067D00C294120832AE07E4FDEDC395295017E47C
:10068D00FF120832AB26AA27A9288D82758300EFA9
:0A069D001203AF0D80E3D294AF0604
:0106A7002230
:0606A8008B268A27892839
:1006AE00C294120832AE07E4FDEDC395295015AB86
:1006BE0026AA27A9288D82758300120382FF1208AD
:0806CE00320D80E5D294AF0665
:0106D6002201
:10072D00C2937BFF7A08796B7529057F301206A875
:10073D007D057F3D1207AA7D037F2312079C7D0E49
:08074D007F201207AAD29322BB
:1006D700C2937BFF7A08796B7529057F2A1206A8D2
:1006E7007D057F3D1207AA7D017F3C1207AA7D0188
:0C06F7007F2212079C7D0F7F200207AAC3
:10081D008D297FB01206A87F287E817D017C001274
:05082D000601D2932238
:1007BD007591407592B875B10575B202E4F58675FF
:0C07CD0084C07585D0C293D294C29722DC
:1000030053B1FC43B10553B2FC43B202758780750B
:0D0013009850758920758DEED28ED2AC22EA
:030023000205B221
:0705B200C0E0C0D075D008C5
:1005B90030991CC299796AE7786C666010786AE6A6
:1005C90006540F2459F8E6F599C2138002C2123075
:1005D9009821AF99C2987869E62410FDE433FC7834
:1005E9006BE66D7001EC600BE606540F2449F8A622
:0305F9000FC2111D
:0505FC00D0D0D0E03278
:1007F100796BE77869667002D2117869E606540F61
:060801002449F8E6FF2285
:1007790020131F201205D2128F9922786CE6065495
:100789000F2459F8A607796CE7786A66540F700246
:03079900D2132256
:10080700AE072013FDBE0A057F0D1207792013FDE1
:06081700AF061207792272
:0307750001480137
:0A0861005395DF4395205396DF22E4
:10070300EF6003754801E548601720A5147FB47EA8
:10071300077D007C00120601E4F54820A5097F014E
:090723002230A5037548017F0096
:01072C0022AA
:080601008F3C8E3B8D3A8C39D1
:10060900E4F540F53FF53EF53DAF3CAE3BAD3AACC8
:1006190039AB40AA3FA93EA83DC31203D15017E503
:10062900402401F540E4353FF53FE4353EF53EE42D
:06063900353DF53D80D3C4
:01063F002298
:020640008F41E8
:10064200E4F545F544F543F542AF41E4FCFDFEAB6C
:1006520045AA44A943A842C31203D15017E5452431
:1006620001F545E43544F544E43543F543E43542C8
:04067200F54280D5F8
:010676002261
:10054900E4F528F527F526F525E47F03FEFDFCAB48
:1005590028AA27A926A825C31203D1504BE4F52CB4
:10056900F52BF52AF529E47F32FEFDFCAB2CAA2BED
:10057900A92AA829C31203D15017E52C2401F52C67
:10058900E4352BF52BE4352AF52AE43529F52980BC
:10059900D5E5282401F528E43527F527E43526F59E
:0805A90026E43525F52580A1AB
:0105B1002227
:03000000020443B4
:0C044300787FE4F6D8FD75816C02048A15
:10038200BB010CE58229F582E5833AF583E0225030
:1003920006E92582F8E622BBFE06E92582F8E2227A
:0D03A200E58229F582E5833AF583E4932294
:1003AF00F8BB010DE58229F582E5833AF583E8F084
:1003BF00225006E92582C8F622BBFE05E92582C830
:0203CF00F22218
:1003D100EB9FF5F0EA9E42F0E99D42F0E89C45F082
:0103E10022F9
:10002600E5342428F8E60534227825300F027828AE
:10003600E475F00112040D0203E22008EB7F2ED2D4
:10004600088018EF540F2490D43440D4FF300C0BA2
:10005600EF24BFB41A0050032461FFE53560021592
:10006600350538E53870020537300F0D7825E4750B
:10007600F00112040DEF0203FB0208077403D20F0E
:100086008003E4C20FF5348B258A268927E4F535EB
:10009600F537F538E53560077F2012006180F57584
:1000A60036FFC209C208C20AC20BC20DC20EC21076
:1000B60012002FFF700D300F057F00120072AF384F
:1000C600AE3722B4255FC2D5C20C12002FFF24D052
:1000D600B40A00501A75F00A783530D50508B6FF0F
:1000E6000106C6A426F620D5047002D20B80D924B8
:1000F600CFB41A00EF5004C2E5D20C020272D20944
:1001060080C6D20880C0D20A80BCD2D580BAD20DB1
:1001160080B47F20120061200A077401B5350040C3
:10012600F1120026FF12006102009AD210D20E8050
:1001360095120026FB120026FA120026F94A4B7089
:100146000679437A037BFF200A2EE535602A7E0076
:100156008E8275830012038260060EEE653670F09D
:10016600C2D5EBC0E0EAC0E0E9C0E0EE1202B9D0C9
:10017600E0F9D0E0FAD0E0FB1203E2FF60AAEBC0A0
:10018600E0EAC0E0E9C0E0120061D0E02401F9D065
:10019600E03400FAD0E0FBE5360460DCD536D980E1
:1001A600877BFF7A0279B5D20A809C791080027922
:1001B60008C20EC2108008D2D5790A8004790AC214
:1001C600D5E536047002F536E4FAFDFEFF12002688
:1001D600FC7B08200913120026FD7B1030080A124A
:1001E6000026FE120026FF7B20EC3382D592D550E6
:1001F60013C3E43008069FFFE49EFEE42009039D36
:10020600FDE49CFCE4CBF8C209EC700CCFCECDCC5F
:10021600E824F8F870F38017C3EF33FFEE33FEEDF2
:1002260033FDEC33FCEB33FB994002FB0FD8E9EBD3
:10023600300905F8D0E0C448B209C0E00AEC4D4EDA
:100246004F78207B0070C2EAB5360040BCC0E01291
:1002560002BBD0F0D0E0200904C4C0E0C4B209C09B
:10026600F012004AD0F0D5F0EB02009A12041D01FC
:10027600375301B15801084C01044201B54F01BD85
:0F0286004401BD49011D4301C35501A74601A70E
:100295004501A747036350010C2D01102E01332B97
:1002A500011423013120034C2A00CC480000012B06
:1002B5003F3F3F00790AA2D5200B14300D09B91034
:1002C500020404B9080104A2D5200E02500104203D
:1002D5000A68920AB535005034C0E07F20300B190A
:1002E5007F30A20A720E720D500F120312C20AC29B
:1002F5000EC20DC2107F30800F300D03E9C0E01231
:100305000061300D03D0E0F9D0E0B535CC300D17E4
:100315007F30B9100C1200617F58300C077F788050
:1003250003B90803120061300A057F2D0200617FC1
:10033500202010F87F2B200EF322920A80CF286E02
:10034500756C6C2900D2091200263009F8C20978AB
:100355003530D50108F60200CC2D5043495812001E
:10036500262403B405004001E490035E9312005275
:0D037500743A120052D20B7535040201B12A
:10044F000204CFE493A3F8E493A34003F68001F2F0
:10045F0008DFF48029E493A3F85407240CC8C333AE
:10046F00C4540F4420C8834004F456800146F6DF7D
:10047F00E4800B0102040810204080900755E47EB1
:10048F00019360BCA3FF543F30E509541FFEE49372
:10049F00A360010ECF54C025E060A840B8E493A339
:1004AF00FAE493A3F8E493A3C8C582C8CAC583CA64
:1004BF00F0A3C8C582C8CAC583CADFE9DEE780BE1C
:010778000080
:1003E200BB010689828A83E0225002E722BBFE0219
:0903F200E32289828A83E493224C
:1003FB00BB010689828A83F0225002F722BBFE01E1
:02040B00F322DA
:10040D00FAE6FB0808E6F925F0F618E6CA3AF622F0
:10041D00D083D082F8E4937012740193700DA3A36E
:10042D0093F8740193F5828883E473740293686082
:06043D00EFA3A3A380DF82
:00000001FF
