:100795000A3D3D3D3D3D3D3D3D3D3D3D3D3D3D3DB7
:1007A5003D52782041434B20746573743D3D3D3D7A
:1007B5003D3D3D3D3D3D3D3D3D3D3D3D3D0A000A07
:1007C500526563656976656420646174613A2000E9
:0607D500256420000A006B
:10095000016E00017000C10BC10A016D00016F0042
:02096000C109CB
:0E0A7E00D2AF120AA6120003120A5D020A1875
:10062E00E4F5221205C51205C51205C5120A7E7B18
:10063E00FF7A0779951200881209257B007A0079D6
:10064E00101209A48F25EF70F27BFF7A0779C4127E
:10065E0000887F60120A998F24E4F523E523C39561
:10066E002450187BFF7A0779D574102523F8E67588
:10067E002900F52A120088052380E17BFF7A07798D
:08068E00D9120088B2A080B36C
:100A5D005395F05396F043960FD2A3D2A2D2A1D2C2
:020A6D00A022C5
:10069600C2A07F287E817D017C001207DBD2A07F6D
:1006A600287E817D017C001207DBC2A17F287E8126
:1006B6007D017C001207DBD2A17F287E817D017C33
:1006C600001207DBC2A27F287E817D017C00120713
:1006D600DBD2A27F287E817D017C001207DBC2A3CC
:1006E6007F287E817D017C001207DBD2A37F287ED6
:0806F600817D017C000207DB9D
:0F0A6F00E7E7E7E7E7E7E7E7E7E7FAFAFAFAFA90
:10096200081800070705080502010810000000002A
:040972000000000081
:0C0A8C008F86E58430E7FB7584C0AF86E0
:010A9800223B
:1009CD001209E27D017F3C1209E27D287F25120983
:0509DD00E27D0F7F2602
:0209E200AE0560
:1009E400C294120A8CAD07AF06120A8CD294AF05DA
:0109F40022E0
:0C0A9900C294120A8CE4FF120A8CD29462
:010AA500222E
:0608F4008B278A288929E8
:1008FA00C294120A8CAE07E4FDEDC3952A5017E4A0
:10090A00FF120A8CAB27AA28A9298D82758300EFCA
:0A091A001204A50D80E3D294AF068D
:0109240022B0
:0B081A007BFF7A0A7974752A057F2A9B
:060825008B278A288929B7
:10082B00C294120A8CAE07E4FDEDC3952A5015ABAA
:10083B0027AA28A9298D82758300120478FF120A32
:08084B008C0D80E5D294AF068C
:010853002282
:10074D0078427C007D007BFF7A0A79797E007F05F7
:10075D001204527B007A007942752A057F30120807
:10076D00257B007A007942752A057F101208F4E482
:10077D00FF74422FF8E6B4FA040FBF05F4EF6405D9
:07078D0060037F01227F00E1
:010794002242
:1008C200C2937D037F231209E27BFF7A0A796F7557
:1008D2002A057F3012082512081A7D1A7F24120970
:1008E200E27D047F3D1209CD7D0E7F201209E2D206
:0208F20093224F
:10092500C29312081A7D087F111209E27D017F2208
:100935001209E27D047F3D1209E27D037F2312093E
:0B094500CD7D0F7F201209E2D293222B
:10085400C293752A087FA0120825D29320B2FDE422
:10086400FD7F071209E2AC07AD047F271209E2EC11
:1008740030E40A7DFF7FE11209E27F1022EC30E5CB
:06088400037F20227FFF2C
:01088A00224B
:1009A400D2937F07120A99AC07AD047F271209E29C
:1009B400EC30E612752A0A7F611208F47DFF7FE2AB
:0809C4001209E27F00227F010D
:0109CC002208
:100A18007591407592B875B10575B202E4F58675A1
:0C0A280084C07585D0C293D294C297227E
:1000030053B1FC43B10553B2FC43B202758780750B
:0D0013009850758920758DEED28ED2AC22EA
:030023000206FED4
:0706FE00C0E0C0D075D00878
:1007050030991CC299796EE77870666010786EE64C
:1007150006540F245DF8E6F599C20B8002C20A3033
:100725009821AF99C298786DE62410FDE433FC78E2
:100735006FE66D7001EC600BE606540F244DF8A6CC
:030745000FC209D7
:05074800D0D0D0E0322A
:100A3400796FE7786D667002D209786DE606540F17
:060A4400244DF8E6FF223C
:1009F500200B1F200A05D20A8F99227870E606542B
:100A05000F245DF8A6077970E7786E66540F7002BB
:030A1500D20B22DF
:100A4A00AE07200BFDBE0A057F0D1209F5AF06128F
:030A5A0009F52279
:03097600014C0130
:0A0AA6005395DF4395205396DF229D
:10097A00EF6003754C01E54C601720A5147FB47E27
:10098A00077D007C001207DBE4F54C20A5097F01F6
:09099A002230A503754C017F0019
:0109A3002231
:0807DB008F3D8E3C8D3B8C3AF2
:1007E300E4F541F540F53FF53EAF3DAE3CAD3BACE6
:1007F3003AAB41AA40A93FA83EC31204C75017E52C
:10080300412401F541E43540F540E4353FF53FE44B
:06081300353EF53E80D3E6
:0108190022BC
:02088B008F4795
:10088D00E4F54BF54AF549F548AF47E4FCFDFEAB01
:10089D004BAA4AA949A848C31204C75017E54B24CF
:1008AD0001F54BE4354AF54AE43549F549E4354857
:0408BD00F54880D5A5
:0108C1002214
:1005C500E4F529F528F527F526E47F03FEFDFCABC8
:1005D50029AA28A927A826C31204C7504BE4F52D3C
:1005E500F52CF52BF52AE47F32FEFDFCAB2DAA2C6C
:1005F500A92BA82AC31204C75017E52D2401F52DF0
:10060500E4352CF52CE4352BF52BE4352AF52A8039
:10061500D5E5292401F529E43528F528E43527F51C
:0806250027E43526F52680A12B
:01062D0022AA
:03000000020539BD
:0C053900787FE4F6D8FD75817002058023
:10038200E709F608DFFA8046E709F208DFFA803E5D
:1003920088828C83E709F0A3DFFA8032E309F6084A
:1003A200DFFA8078E309F208DFFA807088828C83B2
:1003B200E309F0A3DFFA806489828A83E0A3F60866
:1003C200DFFA805889828A83E0A3F208DFFA804C40
:1003D20080D280FA80C680D4806980F28033801017
:1003E20080A680EA809A80A880DA80E280CA803380
:1003F20089828A83ECFAE493A3C8C582C8CCC583F8
:10040200CCF0A3C8C582C8CCC583CCDFE9DEE780C7
:100412000D89828A83E493A3F608DFF9ECFAA9F046
:10042200EDFB2289828A83ECFAE0A3C8C582C8CC9C
:10043200C583CCF0A3C8C582C8CCC583CCDFEADEB5
:10044200E880DB89828A83E493A3F208DFF980CC17
:1004520088F0EF60010E4E60C388F0ED2402B40410
:100462000050B9F582EB2402B4040050AF232345B7
:0604720082239003D27307
:10047800BB010CE58229F582E5833AF583E0225039
:1004880006E92582F8E622BBFE06E92582F8E22283
:0D049800E58229F582E5833AF583E493229D
:1004A500F8BB010DE58229F582E5833AF583E8F08D
:1004B500225006E92582C8F622BBFE05E92582C839
:0204C500F22221
:1004C700EB9FF5F0EA9E42F0E99D42F0E89C45F08B
:0104D7002202
:10002600E5352429F8E605352278263007027829B1
:10003600E475F0011205030204D82000EB7F2ED2EE
:10004600008018EF540F2490D43440D4FF30040BB2
:10005600EF24BFB41A0050032461FFE53660021591
:10006600360539E5397002053830070D7826E4750E
:10007600F001120503EF0204F1020A4A7403D207E3
:100086008003E4C207F5358B268A278928E4F536EE
:10009600F538F539E53660077F2012006180F57581
:1000A60037FFC201C200C202C203C205C206C208AD
:1000B60012002FFF700D3007057F00120072AF3956
:1000C600AE3822B4255FC2D5C20412002FFF24D059
:1000D600B40A00501A75F00A783630D50508B6FF0E
:1000E6000106C6A426F620D5047002D20380D924C0
:1000F600CFB41A00EF5004C2E5D204020272D20154
:1001060080C6D20080C0D20280BCD2D580BAD205C9
:1001160080B47F201200612002077401B5360040CA
:10012600F1120026FF12006102009AD208D2068060
:1001360095120026FB120026FA120026F94A4B7089
:100146000679437A037BFF20022EE536602A7E007D
:100156008E8275830012047860060EEE653770F0A5
:10016600C2D5EBC0E0EAC0E0E9C0E0EE1202B9D0C9
:10017600E0F9D0E0FAD0E0FB1204D8FF60AAEBC0A9
:10018600E0EAC0E0E9C0E0120061D0E02401F9D065
:10019600E03400FAD0E0FBE5370460DCD537D980DF
:1001A600877BFF7A0279B5D202809C79108002792A
:1001B60008C206C2088008D2D5790A8004790AC224
:1001C600D5E537047002F537E4FAFDFEFF12002686
:1001D600FC7B08200113120026FD7B1030000A125A
:1001E6000026FE120026FF7B20EC3382D592D550E6
:1001F60013C3E43000069FFFE49EFEE42001039D46
:10020600FDE49CFCE4CBF8C201EC700CCFCECDCC67
:10021600E824F8F870F38017C3EF33FFEE33FEEDF2
:1002260033FDEC33FCEB33FB994002FB0FD8E9EBD3
:10023600300105F8D0E0C448B201C0E00AEC4D4EEA
:100246004F78207B0070C2EAB5370040BCC0E01290
:1002560002BBD0F0D0E0200104C4C0E0C4B201C0AB
:10026600F012004AD0F0D5F0EB02009A1205130105
:10027600375301B15801084C01044201B54F01BD85
:0F0286004401BD49011D4301C35501A74601A70E
:100295004501A747036350010C2D01102E01332B97
:1002A500011423013120034C2A00CC480000012B06
:1002B5003F3F3F00790AA2D5200314300509B91044
:1002C500020404B9080104A2D52006025001042045
:1002D50002689202B536005034C0E07F2030031921
:1002E5007F30A20272067205500F120312C202C2BB
:1002F50006C205C2087F30800F300503E9C0E01251
:100305000061300503D0E0F9D0E0B536CC300517F3
:100315007F30B9100C1200617F583004077F788058
:1003250003B908031200613002057F2D0200617FC9
:10033500202008F87F2B2006F322920280CF286E1A
:10034500756C6C2900D2011200263001F8C20178C3
:100355003630D50108F60200CC2D5043495812001D
:10036500262403B405004001E490035E9312005275
:0D037500743A120052D2037536040201B131
:1005450002062EE493A3F8E493A34003F68001F298
:1005550008DFF48029E493A3F85407240CC8C333B7
:10056500C4540F4420C8834004F456800146F6DF86
:10057500E4800B0102040810204080900950E47EBD
:10058500019360BCA3FF543F30E509541FFEE4937B
:10059500A360010ECF54C025E060A840B8E493A342
:1005A500FAE493A3F8E493A3C8C582C8CAC583CA6D
:1005B500F0A3C8C582C8CAC583CADFE9DEE780BE25
:01097900007D
:1004D800BB010689828A83E0225002E722BBFE0222
:0904E800E32289828A83E4932255
:1004F100BB010689828A83F0225002F722BBFE01EA
:02050100F322E3
:10050300FAE6FB0808E6F925F0F618E6CA3AF622F9
:10051300D083D082F8E4937012740193700DA3A377
:1005230093F8740193F5828883E47374029368608B
:06053300EFA3A3A380DF8B
:00000001FF
