:100731000A3D3D3D3D3D3D3D3D3D3D3D3D3D3D3D1B
:100741003D54782041434B20746573743D3D3D3DDC
:100751003D3D3D3D3D3D3D3D3D3D3D3D3D0A000A6B
:1007610053656E6420446174613A002534647E00EF
:10077100253264000A000A72657475726E20766112
:070781006C3A2025780A0004
:10099400016A00016C00C10BC10A016900016B000E
:0209A400C10987
:0E0AC200D2AF120AEA120003120AA1020A5C65
:10053900E4F522120660120660120660120AC27BF6
:10054900FF7A077931120088120906AF2205228F36
:10055900187B007A0079181208988F24EF642070AC
:10056900417BFF7A0779601200887BFF7A07796CF3
:100579007528008518291200887523017BFF7A07E1
:10058900797174182523F8E6752800F52912008871
:100599000523E523C3940840E37BFF7A07797512A5
:1005A90000887BFF7A07797775280085242912004E
:1005B90088B2A07F287E817D017C0012081F7F28D8
:0B05C9007E817D017C0012081F8080F5
:100A5C007591407592B875B10575B202E4F586755D
:0C0A6C0084C07585D0C293D294C297223A
:0F0AB300E7E7E7E7E7E7E7E7E7E7FAFAFAFAFA4C
:1009A60008180007070506050201081000000000E8
:0409B600000000003D
:0C0AD0008F86E58430E7FB7584C0AF869C
:010ADC0022F7
:100A1100120A267D017F3C120A267D287F25120AB3
:050A2100267D0F7F2679
:020A2600AE051B
:100A2800C294120AD0AD07AF06120AD0D294AF050D
:010A3800229B
:0C0ADD00C294120AD0E4FF120AD0D29496
:010AE90022EA
:060938008B3A8A3B893C6A
:10093E00C294120AD0AE07E4FDEDC3953D5017E404
:10094E00FF120AD0AB3AAA3BA93C8D82758300EF09
:0A095E001204A50D80E3D294AF0649
:01096800226C
:0B085E007BFF7A0A79B87529057F2A14
:060869008B268A27892876
:10086F00C294120AD0AE07E4FDEDC395295015AB23
:10087F0026AA27A9288D82758300120478FF120AF1
:08088F00D00D80E5D294AF0604
:01089700223E
:1007D700783E7C007D007BFF7A0A79BD7E007F052D
:1007E7001204527B007A00793E7529057F30120882
:1007F700697B007A00793E753D057F10120938E460
:10080700FF743E2FF8E6B4FA040FBF05F4EF640552
:0708170060037F01227F0056
:01081E0022B7
:10090600C2937D037F23120A267BFF7A0A79B37589
:1009160029057F3012086912085E7D1A7F24120AA3
:10092600267D047F3D120A117D0E7F20120A26D2F3
:0209360093220A
:10096900C29312085E7D087F11120A267D017F223B
:10097900120A267D047F3D120A267D037F23120A6F
:0B098900117D0F7F20120A26D293225E
:10089800C2937529087FA0120869D29320B2FDE49B
:1008A800FD7F07120A26AC07AD047F27120A26EC43
:1008B80030E40A7DFF7FE1120A267F1022EC30E542
:0608C800037F20227FFFE8
:0108CE002207
:1009E800D2937F07120ADDAC07AD047F27120A26CF
:1009F800EC30E612753D0E7F611209387DFF7FE20B
:080A0800120A267F00227F0183
:010A100022C3
:1000030053B2FC43B20253B1FC43B105758780750B
:0D0013009850758920758DEED28ED2AC22EA
:0300230002078849
:07078800C0E0C0D075D008ED
:10078F0030991CC299796AE7786C666010786AE6CE
:10079F0006540F2459F8E6F599C20B8002C20A30AD
:1007AF009821AF99C2987869E62410FDE433FC785C
:1007BF006BE66D7001EC600BE606540F2449F8A64A
:0307CF000FC2094D
:0507D200D0D0D0E032A0
:100A7800796BE77869667002D2097869E606540FDF
:060A88002449F8E6FF22FC
:100A3900200B1F200A05D20A8F9922786CE60654EA
:100A49000F2459F8A607796CE7786A66540F700283
:030A5900D20B229B
:100A8E00AE07200BFDBE0A057F0D120A39AF061206
:030A9E000A3922F0
:100AA1005395F05396F043960FD2A3D2A2D2A1D27E
:020AB100A02281
:1006C900C2A07F287E817D017C0012081FD2A07FF5
:1006D900287E817D017C0012081FC2A17F287E81AE
:1006E9007D017C0012081FD2A17F287E817D017CBB
:1006F9000012081FC2A27F287E817D017C0012089A
:100709001FD2A27F287E817D017C0012081FC2A30F
:100719007F287E817D017C0012081FD2A37F287E5D
:08072900817D017C0002081F24
:0309BA00014801F0
:0A0AEA005395DF4395205396DF2259
:1009BE00EF6003754801E548601720A5147FB47EEB
:1009CE00077D007C0012081FE4F54820A5097F0171
:0909DE002230A5037548017F00D9
:0109E70022ED
:08081F008F288E278D268C2501
:10082700E4F52CF52BF52AF529AF28AE27AD26AC34
:1008370025AB2CAA2BA92AA829C31204C75017E550
:100847002C2401F52CE4352BF52BE4352AF52AE485
:060857003529F52980D3CC
:01085D002278
:0208CF008F4355
:1008D100E4F547F546F545F544AF43E4FCFDFEABD1
:1008E10047AA46A945A844C31204C75017E547249F
:1008F10001F547E43546F546E43545F545E435442B
:04090100F54480D564
:0109050022CF
:10066000E4F528F527F526F525E47F03FEFDFCAB30
:1006700028AA27A926A825C31204C7504BE4F52CA5
:10068000F52BF52AF529E47F32FEFDFCAB2CAA2BD5
:10069000A92AA829C31204C75017E52C2401F52C58
:1006A000E4352BF52BE4352AF52AE43529F52980A4
:1006B000D5E5282401F528E43527F527E43526F586
:0806C00026E43525F52580A193
:0106C800220F
:030000000205D422
:0C05D400787FE4F6D8FD75816C02061BF0
:10038200E709F608DFFA8046E709F208DFFA803E5D
:1003920088828C83E709F0A3DFFA8032E309F6084A
:1003A200DFFA8078E309F208DFFA807088828C83B2
:1003B200E309F0A3DFFA806489828A83E0A3F60866
:1003C200DFFA805889828A83E0A3F208DFFA804C40
:1003D20080D280FA80C680D4806980F28033801017
:1003E20080A680EA809A80A880DA80E280CA803380
:1003F20089828A83ECFAE493A3C8C582C8CCC583F8
:10040200CCF0A3C8C582C8CCC583CCDFE9DEE780C7
:100412000D89828A83E493A3F608DFF9ECFAA9F046
:10042200EDFB2289828A83ECFAE0A3C8C582C8CC9C
:10043200C583CCF0A3C8C582C8CCC583CCDFEADEB5
:10044200E880DB89828A83E493A3F208DFF980CC17
:1004520088F0EF60010E4E60C388F0ED2402B40410
:100462000050B9F582EB2402B4040050AF232345B7
:0604720082239003D27307
:10047800BB010CE58229F582E5833AF583E0225039
:1004880006E92582F8E622BBFE06E92582F8E22283
:0D049800E58229F582E5833AF583E493229D
:1004A500F8BB010DE58229F582E5833AF583E8F08D
:1004B500225006E92582C8F622BBFE05E92582C839
:0204C500F22221
:1004C700EB9FF5F0EA9E42F0E99D42F0E89C45F08B
:0104D7002202
:10002600E5342428F8E605342278253007027828B6
:10003600E475F0011205030204D82000EB7F2ED2EE
:10004600008018EF540F2490D43440D4FF30040BB2
:10005600EF24BFB41A0050032461FFE53560021592
:10006600350538E5387002053730070D7825E47513
:10007600F001120503EF0204F1020A8E7403D2079F
:100086008003E4C207F5348B258A268927E4F535F3
:10009600F537F538E53560077F2012006180F57584
:1000A60036FFC201C200C202C203C205C206C208AE
:1000B60012002FFF700D3007057F00120072AF3857
:1000C600AE3722B4255FC2D5C20412002FFF24D05A
:1000D600B40A00501A75F00A783530D50508B6FF0F
:1000E6000106C6A426F620D5047002D20380D924C0
:1000F600CFB41A00EF5004C2E5D204020272D20154
:1001060080C6D20080C0D20280BCD2D580BAD205C9
:1001160080B47F201200612002077401B5350040CB
:10012600F1120026FF12006102009AD208D2068060
:1001360095120026FB120026FA120026F94A4B7089
:100146000679437A037BFF20022EE535602A7E007E
:100156008E8275830012047860060EEE653670F0A6
:10016600C2D5EBC0E0EAC0E0E9C0E0EE1202B9D0C9
:10017600E0F9D0E0FAD0E0FB1204D8FF60AAEBC0A9
:10018600E0EAC0E0E9C0E0120061D0E02401F9D065
:10019600E03400FAD0E0FBE5360460DCD536D980E1
:1001A600877BFF7A0279B5D202809C79108002792A
:1001B60008C206C2088008D2D5790A8004790AC224
:1001C600D5E536047002F536E4FAFDFEFF12002688
:1001D600FC7B08200113120026FD7B1030000A125A
:1001E6000026FE120026FF7B20EC3382D592D550E6
:1001F60013C3E43000069FFFE49EFEE42001039D46
:10020600FDE49CFCE4CBF8C201EC700CCFCECDCC67
:10021600E824F8F870F38017C3EF33FFEE33FEEDF2
:1002260033FDEC33FCEB33FB994002FB0FD8E9EBD3
:10023600300105F8D0E0C448B201C0E00AEC4D4EEA
:100246004F78207B0070C2EAB5360040BCC0E01291
:1002560002BBD0F0D0E0200104C4C0E0C4B201C0AB
:10026600F012004AD0F0D5F0EB02009A1205130105
:10027600375301B15801084C01044201B54F01BD85
:0F0286004401BD49011D4301C35501A74601A70E
:100295004501A747036350010C2D01102E01332B97
:1002A500011423013120034C2A00CC480000012B06
:1002B5003F3F3F00790AA2D5200314300509B91044
:1002C500020404B9080104A2D52006025001042045
:1002D50002689202B535005034C0E07F2030031922
:1002E5007F30A20272067205500F120312C202C2BB
:1002F50006C205C2087F30800F300503E9C0E01251
:100305000061300503D0E0F9D0E0B535CC300517F4
:100315007F30B9100C1200617F583004077F788058
:1003250003B908031200613002057F2D0200617FC9
:10033500202008F87F2B2006F322920280CF286E1A
:10034500756C6C2900D2011200263001F8C20178C3
:100355003530D50108F60200CC2D5043495812001E
:10036500262403B405004001E490035E9312005275
:0D037500743A120052D2037535040201B132
:1005E000020539E493A3F8E493A34003F68001F2F3
:1005F00008DFF48029E493A3F85407240CC8C3331C
:10060000C4540F4420C8834004F456800146F6DFEA
:10061000E4800B0102040810204080900994E47EDD
:10062000019360BCA3FF543F30E509541FFEE493DF
:10063000A360010ECF54C025E060A840B8E493A3A6
:10064000FAE493A3F8E493A3C8C582C8CAC583CAD1
:10065000F0A3C8C582C8CAC583CADFE9DEE780BE89
:0109BD000039
:1004D800BB010689828A83E0225002E722BBFE0222
:0904E800E32289828A83E4932255
:1004F100BB010689828A83F0225002F722BBFE01EA
:02050100F322E3
:10050300FAE6FB0808E6F925F0F618E6CA3AF622F9
:10051300D083D082F8E4937012740193700DA3A377
:1005230093F8740193F5828883E47374029368608B
:06053300EFA3A3A380DF8B
:00000001FF
