:1008FD000A3D3D3D3D3D3D3D3D3D3D3D3D3D3D3D4E
:10090D003D52782041434B20746573743D3D3D3D10
:10091D003D3D3D3D3D3D3D3D3D3D3D3D3D0A000A9D
:10092D00526563656976656420646174613A20007F
:10093D0025336420000A0041434B205061796C6FD0
:0A094D0061643A20002532642000A6
:100B4E00017F00018100C10BC10A017E00018000FE
:020B5E00C109CB
:0E0C8100D2AF120CA9120003120C60020C1B61
:1005C400E4F5221207C81207C81207C8120C817B6F
:1005D400FF7A0879FD120088120B7B752408E4F574
:1005E40025F53CF5231209A67C017D001204F27462
:1005F400452523F8A6050523E523C3942040E67B7F
:10060400007A00794585242C7FA8120A85D2937537
:100614002B00752C00752D257B007A00793D12087E
:1006240099EF60EB7BFF7A09792C120088E4F523BB
:10063400E523C3952550187BFF7A09793D743D2540
:1006440023F8E6752B00F52C120088052380E17B46
:10065400FF7A0979421200887BFF7A0979441200F3
:1006640088E4F523E523C3952450187BFF7A0979A0
:100674005274452523F8E6752B00F52C12008805E5
:100684002380E17BFF7A097942120088E4F5231282
:1006940009A67C017D001204F274452523F8A60501
:1006A4000523E523C3942040E67B007A0079458541
:0C06B400242C7FA8120A85B2A0020613B5
:100C60005395F05396F043960FD2A3D2A2D2A1D2BD
:020C7000A022C0
:10083100C2A07F287E817D017C00120A3BD2A07F6D
:10084100287E817D017C00120A3BC2A17F287E8126
:100851007D017C00120A3BD2A17F287E817D017C33
:1008610000120A3BC2A27F287E817D017C00120A10
:100871003BD2A27F287E817D017C00120A3BC2A36C
:100881007F287E817D017C00120A3BD2A37F287ED6
:08089100817D017C00020A3B9D
:0F0C7200E7E7E7E7E7E7E7E7E7E7FAFAFAFAFA8B
:100B600008450007070508050201083D00000000D0
:070B700000000000013C0041
:0C0C8F008F86E58430E7FB7584C0AF86DB
:010C9B002236
:100BD000120BE57D017F3C120BE57D287F25120B72
:050BE000E57D0F7F26FA
:020BE500AE055B
:100BE700C294120C8FAD07AF06120C8FD294AF05CB
:010BF70022DB
:0C0C9C00C294120C8FE4FF120C8FD29453
:010CA8002229
:060B1D008B2F8A308931A4
:100B2300C294120C8FAE07E4FDEDC395325017E467
:100B3300FF120C8FAB2FAA30A9318D82758300EF82
:0A0B43001204D00D80E3D294AF0637
:010B4D002285
:0B0A7A007BFF7A0C7977752C057F2A32
:060A85008B298A2A892B4F
:100A8B00C294120C8FAE07E4FDEDC3952C5015AB41
:100A9B0029AA2AA92B8D82758300120491FF120CAF
:080AAB008F0D80E5D294AF0627
:010AB3002220
:1009F300781A7C007D007BFF7A0C797C7E007F0572
:100A03001204527B007A00791A752C057F30120A82
:100A1300857B007A00791A7532057F10120B1DE46D
:100A2300FF741A2FF8E6B4FA040FBF05F4EF640558
:070A330060037F01227F0038
:010A3A002299
:100AEB00C2937D037F23120BE57BFF7A0C79727522
:100AFB002C057F30120A85120A7A7D1A7F24120B7D
:100B0B00E57D067F3D120BD07D0E7F20120BE5D2CB
:020B1B00932223
:100B7B00C293120A7A7D087F11120BE57D017F2249
:100B8B00120BE57D067F3D120BE57D037F23120BD8
:0B0B9B00D07D0F7F20120BE5D29322CB
:02074C008D130B
:10074E00C293E4FD7FE1120BE5752C087FA0120A1F
:10075E0085D29320B2FDE4FD7F07120BE5AC07AD09
:10076E00047F27120BE5EC30E40A7DFF7FE1120BCC
:10077E00E57F1022EC5460603EEC540E60037F0067
:10078E00227F60120C9CAB17AA18A919EF1204BE97
:10079E00AB17AA18A919120478F532AB14AA15A929
:1007AE00167F61120B1DE4FD7FE2120BE5E4FD7F67
:0907BE00E1120BE5AF04227F00FB
:0107C700220F
:060899008B288A29892A40
:10089F00D2937F07120C9CAC07AD047F27120BE598
:1008AF00E53C600DEC54606042EC540E600E7F002E
:1008BF0022EC30E636540E60037F00227F60120C6C
:1008CF009CAB2BAA2CA92DEF1204BEAB2BAA2CA9E3
:1008DF002D120478F532AB28AA29A92A7F61120BB1
:0D08EF001DE4FD7FE2120BE5AF04227F0047
:0108FC0022D9
:100C1B007591407592B875B10575B202E4F586759C
:0C0C2B0084C07585D0C293D294C2972279
:1000030053B1FC43B10553B2FC43B202758780750B
:0D0013009850758920758DEED28ED2AC22EA
:0300230002095778
:07095700C0E0C0D075D0081C
:10095E0030991CC299797FE77881666010787FE6BE
:10096E0006540F246EF8E6F599C20B8002C20A30C7
:10097E009821AF99C298787EE62410FDE433FC7876
:10098E0080E66D7001EC600BE606540F245EF8A64F
:03099E000FC2097C
:0509A100D0D0D0E032CF
:100C37007980E7787E667002D209787EE606540FDF
:060C4700245EF8E6FF2226
:100BF800200B1F200A05D20A8F99227881E6065415
:100C08000F246EF8A6077981E7787F66540F700283
:030C1800D20B22DA
:100C4D00AE07200BFDBE0A057F0D120BF8AF061285
:030C5D000BF8226F
:030B7700011F015A
:0A0CA9005395DF4395205396DF2298
:100BA600EF6003751F01E51F601720A5147FB47E53
:100BB600077D007C00120A3BE4F51F20A5097F0192
:090BC6002230A503751F017F0018
:010BCF002203
:080A3B008F508E4F8D4E8C4D43
:100A4300E4F554F553F552F551AF50AE4FAD4EACFE
:100A53004DAB54AA53A952A851C31205285017E508
:100A6300542401F554E43553F553E43552F552E477
:060A73003551F55180D35E
:010A7900225A
:020AB4008F555C
:100AB600E4F559F558F557F556AF55E4FCFDFEAB90
:100AC60059AA58A957A856C31205285017E55924FC
:100AD60001F559E43558F558E43557F557E43556D8
:040AE600F55680D56C
:010AEA0022E9
:1007C800E4F52BF52AF529F528E47F03FEFDFCABBB
:1007D8002BAA2AA929A828C3120528504BE4F52FCB
:1007E800F52EF52DF52CE47F32FEFDFCAB2FAA2E5D
:1007F800A92DA82CC31205285017E52F2401F52F81
:10080800E4352EF52EE4352DF52DE4352CF52C8028
:10081800D5E52B2401F52BE4352AF52AE43529F50D
:0808280029E43528F52880A120
:0108300022A5
:030000000206C035
:0C06C000787FE4F6D8FD75818102070701
:10038200E709F608DFFA8046E709F208DFFA803E5D
:1003920088828C83E709F0A3DFFA8032E309F6084A
:1003A200DFFA8078E309F208DFFA807088828C83B2
:1003B200E309F0A3DFFA806489828A83E0A3F60866
:1003C200DFFA805889828A83E0A3F208DFFA804C40
:1003D20080D280FA80C680D4806980F28033801017
:1003E20080A680EA809A80A880DA80E280CA803380
:1003F20089828A83ECFAE493A3C8C582C8CCC583F8
:10040200CCF0A3C8C582C8CCC583CCDFE9DEE780C7
:100412000D89828A83E493A3F608DFF9ECFAA9F046
:10042200EDFB2289828A83ECFAE0A3C8C582C8CC9C
:10043200C583CCF0A3C8C582C8CCC583CCDFEADEB5
:10044200E880DB89828A83E493A3F208DFF980CC17
:1004520088F0EF60010E4E60C388F0ED2402B40410
:100462000050B9F582EB2402B4040050AF232345B7
:0604720082239003D27307
:10047800BB010689828A83E0225002E722BBFE0282
:09048800E32289828A83E49322B5
:10049100BB010CE58229F582E5833AF583E0225020
:1004A10006E92582F8E622BBFE06E92582F8E2226A
:0D04B100E58229F582E5833AF583E4932284
:1004BE00BB010689828A83F0225002F722BBFE011D
:0204CE00F32217
:1004D000F8BB010DE58229F582E5833AF583E8F062
:1004E000225006E92582C8F622BBFE05E92582C80E
:0204F000F222F6
:1004F200C2D5EC30E709B2D5E4C39DFDE49CFCEE25
:1005020030E715B2D5E4C39FFFE49EFE120539C35E
:10051200E49DFDE49CFC800312053930D507C3E459
:060522009FFFE49EFE2293
:10052800EB9FF5F0EA9E42F0E99D42F0E89C45F029
:0105380022A0
:10002600E537242BF8E60537227828300702782BA7
:10003600E475F00112058E0204782000EB7F2ED2C3
:10004600008018EF540F2490D43440D4FF30040BB2
:10005600EF24BFB41A0050032461FFE5386002158F
:1000660038053BE53B7002053A30070D7828E47504
:10007600F00112058EEF0204BE020C4D7403D20786
:100086008003E4C207F5378B288A29892AE4F538E4
:10009600F53AF53BE53860077F2012006180F5757B
:1000A60039FFC201C200C202C203C205C206C208AB
:1000B60012002FFF700D3007057F00120072AF3B54
:1000C600AE3A22B4255FC2D5C20412002FFF24D057
:1000D600B40A00501A75F00A783830D50508B6FF0C
:1000E6000106C6A426F620D5047002D20380D924C0
:1000F600CFB41A00EF5004C2E5D204020272D20154
:1001060080C6D20080C0D20280BCD2D580BAD205C9
:1001160080B47F201200612002077401B5380040C8
:10012600F1120026FF12006102009AD208D2068060
:1001360095120026FB120026FA120026F94A4B7089
:100146000679437A037BFF20022EE538602A7E007B
:100156008E8275830012049160060EEE653970F08A
:10016600C2D5EBC0E0EAC0E0E9C0E0EE1202B9D0C9
:10017600E0F9D0E0FAD0E0FB120478FF60AAEBC009
:10018600E0EAC0E0E9C0E0120061D0E02401F9D065
:10019600E03400FAD0E0FBE5390460DCD539D980DB
:1001A600877BFF7A0279B5D202809C79108002792A
:1001B60008C206C2088008D2D5790A8004790AC224
:1001C600D5E539047002F539E4FAFDFEFF12002682
:1001D600FC7B08200113120026FD7B1030000A125A
:1001E6000026FE120026FF7B20EC3382D592D550E6
:1001F60013C3E43000069FFFE49EFEE42001039D46
:10020600FDE49CFCE4CBF8C201EC700CCFCECDCC67
:10021600E824F8F870F38017C3EF33FFEE33FEEDF2
:1002260033FDEC33FCEB33FB994002FB0FD8E9EBD3
:10023600300105F8D0E0C448B201C0E00AEC4D4EEA
:100246004F78207B0070C2EAB5390040BCC0E0128E
:1002560002BBD0F0D0E0200104C4C0E0C4B201C0AB
:10026600F012004AD0F0D5F0EB02009A12059E017A
:10027600375301B15801084C01044201B54F01BD85
:0F0286004401BD49011D4301C35501A74601A70E
:100295004501A747036350010C2D01102E01332B97
:1002A500011423013120034C2A00CC480000012B06
:1002B5003F3F3F00790AA2D5200314300509B91044
:1002C500020404B9080104A2D52006025001042045
:1002D50002689202B538005034C0E07F203003191F
:1002E5007F30A20272067205500F120312C202C2BB
:1002F50006C205C2087F30800F300503E9C0E01251
:100305000061300503D0E0F9D0E0B538CC300517F1
:100315007F30B9100C1200617F583004077F788058
:1003250003B908031200613002057F2D0200617FC9
:10033500202008F87F2B2006F322920280CF286E1A
:10034500756C6C2900D2011200263001F8C20178C3
:100355003830D50108F60200CC2D5043495812001B
:10036500262403B405004001E490035E9312005275
:0D037500743A120052D2037538040201B12F
:1009A600AC5AAD5BAE5CAF5D7810EC4D4E4F70044B
:1009B6007CA57DA5C3EC13FCED13FDEE13FEEF1332
:1009C600FF5010EC64CCFCED644CFDEE644EFEEF83
:1009D60064CEFFD8DF8C5A8D5B8E5C8F5DEE547FC4
:0D09E600FE228E5A8F5B74A5F55CF55D2234
:1006CC000205C4E493A3F8E493A34003F68001F27B
:1006DC0008DFF48029E493A3F85407240CC8C3332F
:1006EC00C4540F4420C8834004F456800146F6DFFE
:1006FC00E4800B0102040810204080900B4EE47E35
:10070C00019360BCA3FF543F30E509541FFEE493F2
:10071C00A360010ECF54C025E060A840B8E493A3B9
:10072C00FAE493A3F8E493A3C8C582C8CAC583CAE4
:10073C00F0A3C8C582C8CAC583CADFE9DEE780BE9C
:010B7A00007A
:10053900BC000BBE0029EF8DF084FFADF022E4CCA6
:10054900F875F008EF2FFFEE33FEEC33FCEE9DEC6F
:10055900984005FCEE9DFE0FD5F0E9E4CEFD22EDB5
:10056900F8F5F0EE8420D21CFEADF075F008EF2FFF
:10057900FFED33FD4007985006D5F0F222C398FDF0
:050589000FD5F0EA228D
:10058E00FAE6FB0808E6F925F0F618E6CA3AF6226E
:10059E00D083D082F8E4937012740193700DA3A3EC
:1005AE0093F8740193F5828883E473740293686000
:0605BE00EFA3A3A380DF00
:00000001FF
