:1006A8000A3D3D3D3D3D3D3D3D3D3D3D3D3D3D3DA5
:1006B8003D54782041434B20746573743D3D3D3D66
:1006C8003D3D3D3D3D3D3D3D3D3D3D3D3D0A000AF5
:1006D80053656E6420446174613A002534647E2059
:1006E8000025336420000A00205265636569766539
:1006F800642041434B205061796C6F61643A002556
:10070800326420000A6661696C2120726574757212
:0B0718006E2076616C3A2025780A0004
:100A7D00016E00017000C10BC10A016D00016F0014
:020A8D00C1099D
:0E0BB000D2AF120BD8120003120B8F020B4AA9
:10053900E4F52212079E12079E12079E120BB07B4A
:10054900FF7A0679A8120088120A1A752508E4F5B7
:1005590026AF2205228F44752B00752C00752D3C82
:10056900752E00752F007530267B007A007944AD11
:10057900251207238F24EF6460706E7BFF7A06795A
:10058900D71200887BFF7A0679E3752A0085442B08
:10059900120088752301E523C3952550187BFF7A3E
:1005A9000679E974442523F8E6752A00F52B12002B
:1005B90088052380E17BFF7A0679EE1200887BFFAC
:1005C9007A0679F0120088E4F523E523C3952650CD
:1005D900277BFF7A077907743C2523F8E6752A00FB
:1005E900F52B120088052380E17BFF7A07790C75CA
:1005F9002A0085242B120088B2A07F287E817D01E4
:100609007C0012096A7F287E817D017C0012096ABB
:0306190002055A7D
:100B4A007591407592B875B10575B202E4F586756E
:0C0B5A0084C07585D0C293D294C297224B
:0F0BA100E7E7E7E7E7E7E7E7E7E7FAFAFAFAFA5D
:100A8F0008440007070506050201083C00000000A6
:070A9F0000000000013B0014
:0C0BBE008F86E58430E7FB7584C0AF86AD
:010BCA002208
:100AFF00120B147D017F3C120B147D287F25120BE6
:050B0F00147D0F7F269C
:020B1400AE052C
:100B1600C294120BBEAD07AF06120BBED294AF0540
:010B260022AC
:0C0BCB00C294120BBEE4FF120BBED294C9
:010BD70022FB
:060A4C008B328A3389346D
:100A5200C294120BBEAE07E4FDEDC395355017E408
:100A6200FF120BBEAB32AA33A9348D82758300EF1D
:0A0A72001204D00D80E3D294AF0609
:010A7C002257
:0B09A9007BFF7A0B79A67535057F2ACD
:0609B4008B328A33893406
:1009BA00C294120BBEAE07E4FDEDC395355015ABDC
:1009CA0032AA33A9348D82758300120491FF120B67
:0809DA00BE0D80E5D294AF06CA
:0109E20022F2
:1009220078167C007D007BFF7A0B79AB7E007F0519
:100932001204527B007A0079167535057F30120950
:10094200B47B007A0079167535057F10120A4CE4E3
:10095200FF74162FF8E6B4FA040FBF05F4EF64052E
:0709620060037F01227F000A
:01096900226B
:100A1A00C2937D037F23120B147BFF7A0B79A17596
:100A2A0035057F301209B41209A97D1A7F24120BE9
:100A3A00147D067F3D120AFF7D0E7F20120B14D211
:020A4A009322F5
:100AAA00C2931209A97D087F11120B147D017F22BE
:100ABA00120B147D067F3D120B147D037F23120A4D
:0B0ACA00FF7D0F7F20120B14D293223F
:02072300AC0523
:10072500C293E4FD7FE1120B148C357FA01209B44E
:10073500D29320B2FDE4FD7F07120B14AC07AD0484
:100745007F27120B14EC30E40AE4FD7FE1120B1451
:100755007F1022EC5460603EEC540E60037F002253
:100765007F60120BCBAB2EAA2FA930EF1204BEABC4
:100775002EAA2FA930120478F535AB2BAA2CA92D5A
:100785007F61120A4CE4FD7FE2120B14E4FD7FE168
:08079500120B14AF04227F00D7
:01079D002239
:06086F008B108A118912B2
:10087500D2937F07120BCBAC07AD047F27120B1465
:10088500E53B600DEC54606042EC540E600E7F0059
:1008950022EC30E636540E60037F00227F60120B97
:1008A500CBAB13AA14A915EF1204BEAB13AA14A956
:1008B50015120478F535AB10AA11A9127F61120A39
:0D08C5004CE4FD7FE2120B14AF04227F0013
:0108D2002203
:1000030053B2FC43B20253B1FC43B105758780750B
:0D0013009850758920758DEED28ED2AC22EA
:030023000208D3FD
:0708D300C0E0C0D075D008A1
:1008DA0030991CC299796EE77870666010786EE676
:1008EA0006540F245DF8E6F599C20B8002C20A305D
:1008FA009821AF99C298786DE62410FDE433FC780C
:10090A006FE66D7001EC600BE606540F244DF8A6F5
:03091A000FC20900
:05091D00D0D0D0E03253
:100B6600796FE7786D667002D209786DE606540FE4
:060B7600244DF8E6FF2209
:100B2700200B1F200A05D20A8F99227870E60654F7
:100B37000F245DF8A6077970E7786E66540F700288
:030B4700D20B22AC
:100B7C00AE07200BFDBE0A057F0D120B27AF061228
:030B8C000B272212
:100B8F005395F05396F043960FD2A3D2A2D2A1D28F
:020B9F00A02292
:10080700C2A07F287E817D017C0012096AD2A07F69
:10081700287E817D017C0012096AC2A17F287E8122
:100827007D017C0012096AD2A17F287E817D017C2F
:100837000012096AC2A27F287E817D017C0012090D
:100847006AD2A27F287E817D017C0012096AC2A339
:100857007F287E817D017C0012096AD2A37F287ED2
:08086700817D017C0002096A99
:030AA600014C01FF
:0A0BD8005395DF4395205396DF226A
:100AD500EF6003754C01E54C601720A5147FB47ECB
:100AE500077D007C0012096AE4F54C20A5097F0109
:090AF5002230A503754C017F00BD
:010AFE0022D5
:08096A008F2A8E298D288C27AD
:10097200E4F52EF52DF52CF52BAF2AAE29AD28ACDA
:1009820027AB2EAA2DA92CA82BC31204F25017E5CF
:100992002E2401F52EE4352DF52DE4352CF52CE42D
:0609A200352BF52B80D37C
:0109A800222C
:0209E3008F1B68
:1009E500E4F51FF51EF51DF51CAF1BE4FCFDFEAB84
:1009F5001FAA1EA91DA81CC31204F25017E51F2427
:100A050001F51FE4351EF51EE4351DF51DE4351C05
:040A1500F51C80D577
:010A190022BA
:10079E00E4F52AF529F528F527E47F03FEFDFCABE9
:1007AE002AAA29A928A827C31204F2504BE4F52E31
:1007BE00F52DF52CF52BE47F32FEFDFCAB2EAA2D8C
:1007CE00A92CA82BC31204F25017E52E2401F52EE6
:1007DE00E4352DF52DE4352CF52CE4352BF52B8059
:1007EE00D5E52A2401F52AE43529F529E43528F53D
:0807FE0028E43527F52780A14E
:0108060022CF
:0300000002061CD9
:0C061C00787FE4F6D8FD7581700206635B
:10038200E709F608DFFA8046E709F208DFFA803E5D
:1003920088828C83E709F0A3DFFA8032E309F6084A
:1003A200DFFA8078E309F208DFFA807088828C83B2
:1003B200E309F0A3DFFA806489828A83E0A3F60866
:1003C200DFFA805889828A83E0A3F208DFFA804C40
:1003D20080D280FA80C680D4806980F28033801017
:1003E20080A680EA809A80A880DA80E280CA803380
:1003F20089828A83ECFAE493A3C8C582C8CCC583F8
:10040200CCF0A3C8C582C8CCC583CCDFE9DEE780C7
:100412000D89828A83E493A3F608DFF9ECFAA9F046
:10042200EDFB2289828A83ECFAE0A3C8C582C8CC9C
:10043200C583CCF0A3C8C582C8CCC583CCDFEADEB5
:10044200E880DB89828A83E493A3F208DFF980CC17
:1004520088F0EF60010E4E60C388F0ED2402B40410
:100462000050B9F582EB2402B4040050AF232345B7
:0604720082239003D27307
:10047800BB010689828A83E0225002E722BBFE0282
:09048800E32289828A83E49322B5
:10049100BB010CE58229F582E5833AF583E0225020
:1004A10006E92582F8E622BBFE06E92582F8E2226A
:0D04B100E58229F582E5833AF583E4932284
:1004BE00BB010689828A83F0225002F722BBFE011D
:0204CE00F32217
:1004D000F8BB010DE58229F582E5833AF583E8F062
:1004E000225006E92582C8F622BBFE05E92582C80E
:0204F000F222F6
:1004F200EB9FF5F0EA9E42F0E99D42F0E89C45F060
:0105020022D6
:10002600E536242AF8E60536227827300702782AAC
:10003600E475F0011205030204782000EB7F2ED24E
:10004600008018EF540F2490D43440D4FF30040BB2
:10005600EF24BFB41A0050032461FFE53760021590
:1000660037053AE53A7002053930070D7827E47509
:10007600F001120503EF0204BE020B7C7403D207E3
:100086008003E4C207F5368B278A288929E4F537E9
:10009600F539F53AE53760077F2012006180F5757E
:1000A60038FFC201C200C202C203C205C206C208AC
:1000B60012002FFF700D3007057F00120072AF3A55
:1000C600AE3922B4255FC2D5C20412002FFF24D058
:1000D600B40A00501A75F00A783730D50508B6FF0D
:1000E6000106C6A426F620D5047002D20380D924C0
:1000F600CFB41A00EF5004C2E5D204020272D20154
:1001060080C6D20080C0D20280BCD2D580BAD205C9
:1001160080B47F201200612002077401B5370040C9
:10012600F1120026FF12006102009AD208D2068060
:1001360095120026FB120026FA120026F94A4B7089
:100146000679437A037BFF20022EE537602A7E007C
:100156008E8275830012049160060EEE653870F08B
:10016600C2D5EBC0E0EAC0E0E9C0E0EE1202B9D0C9
:10017600E0F9D0E0FAD0E0FB120478FF60AAEBC009
:10018600E0EAC0E0E9C0E0120061D0E02401F9D065
:10019600E03400FAD0E0FBE5380460DCD538D980DD
:1001A600877BFF7A0279B5D202809C79108002792A
:1001B60008C206C2088008D2D5790A8004790AC224
:1001C600D5E538047002F538E4FAFDFEFF12002684
:1001D600FC7B08200113120026FD7B1030000A125A
:1001E6000026FE120026FF7B20EC3382D592D550E6
:1001F60013C3E43000069FFFE49EFEE42001039D46
:10020600FDE49CFCE4CBF8C201EC700CCFCECDCC67
:10021600E824F8F870F38017C3EF33FFEE33FEEDF2
:1002260033FDEC33FCEB33FB994002FB0FD8E9EBD3
:10023600300105F8D0E0C448B201C0E00AEC4D4EEA
:100246004F78207B0070C2EAB5380040BCC0E0128F
:1002560002BBD0F0D0E0200104C4C0E0C4B201C0AB
:10026600F012004AD0F0D5F0EB02009A1205130105
:10027600375301B15801084C01044201B54F01BD85
:0F0286004401BD49011D4301C35501A74601A70E
:100295004501A747036350010C2D01102E01332B97
:1002A500011423013120034C2A00CC480000012B06
:1002B5003F3F3F00790AA2D5200314300509B91044
:1002C500020404B9080104A2D52006025001042045
:1002D50002689202B537005034C0E07F2030031920
:1002E5007F30A20272067205500F120312C202C2BB
:1002F50006C205C2087F30800F300503E9C0E01251
:100305000061300503D0E0F9D0E0B537CC300517F2
:100315007F30B9100C1200617F583004077F788058
:1003250003B908031200613002057F2D0200617FC9
:10033500202008F87F2B2006F322920280CF286E1A
:10034500756C6C2900D2011200263001F8C20178C3
:100355003730D50108F60200CC2D5043495812001C
:10036500262403B405004001E490035E9312005275
:0D037500743A120052D2037537040201B130
:10062800020539E493A3F8E493A34003F68001F2AA
:1006380008DFF48029E493A3F85407240CC8C333D3
:10064800C4540F4420C8834004F456800146F6DFA2
:10065800E4800B0102040810204080900A7DE47EAB
:10066800019360BCA3FF543F30E509541FFEE49397
:10067800A360010ECF54C025E060A840B8E493A35E
:10068800FAE493A3F8E493A3C8C582C8CAC583CA89
:10069800F0A3C8C582C8CAC583CADFE9DEE780BE41
:010AA900004C
:10050300FAE6FB0808E6F925F0F618E6CA3AF622F9
:10051300D083D082F8E4937012740193700DA3A377
:1005230093F8740193F5828883E47374029368608B
:06053300EFA3A3A380DF8B
:00000001FF
