:1005CD000A3D3D3D3D3D3D3D3D3D3D3D3D3D3D3D81
:1005DD003D70726F6A65637420746573743D3D3D43
:1005ED003D3D3D3D3D3D3D3D3D3D3D3D3D3D0A009E
:1005FD000A2578000A0D5472616E736D6974656415
:10060D0020446174613A0A0D000A2A2A25642A2AB7
:09061D00200A00256420000A00F7
:10000300016000016200C113C112015F00016100C0
:02001300C11119
:0B087B00D2AF1207D01208860207ED72
:10044300E4F52312056412056412056412087B7B2C
:10045300FF7A0579CD12008812077EAF2305238F1B
:10046300107B007A0079107D0812083920B2FDE470
:10047300FD7F071208108F207BFF7A0579FD752910
:10048300008F2A120088300548AD207F27120810FC
:100493007BFF7A0679011200887BFF7A067916754D
:1004A300290085102A1200887524017BFF7A0679BA
:1004B3002074102524F8E6752900F52A1200880512
:1004C30024E524C3940840E37BFF7A0679241200D1
:0504D30088B2A0808644
:1007ED007591407592B875B10575B202E4F58675CF
:0C07FD0084C07585D0C293D294C29722AC
:05089000E7E7E7E7A720
:0A00150008100007060508050201A7
:0C0861008F86E58430E7FB7584C0AF860D
:01086D002268
:070809001208107D287F2575
:02081000AE0533
:10081200C294120861AD07AF06120861D294AF0507
:0108220022B3
:0C086E00C294120861E4FF120861D294E9
:01087A00225B
:06071E008B198A1A891BE9
:10072400C294120861AE07E4FDEDC3951C5017E4B2
:10073400FF120861AB19AA1AA91B8D82758300EFF9
:0A0744001203AF0D80E3D294AF065C
:01074E002288
:06074F008B278A2889298E
:10075500C294120861AE07E4FDEDC3952A5015ABAE
:1007650027AA28A9298D82758300120382FF120802
:08077500610D80E5D294AF068E
:01077D002259
:10077E00C2937BFF7A087990752A057F3012074F56
:10078E007D017F3D1208107D037F231208097D0F26
:0F079E007F261208107D0E7F20120810D29322A2
:1006EB00C2937BFF7A087990752A057F2A12074FF0
:1006FB007D017F3D1208107D017F221208097D08C4
:10070B007F311208107D0F7F261208107D0F7F207E
:03071B00020810C1
:100839008D2A7FB012074F7F287E817D017C0012AF
:050849000675D29322A8
:1007D00053B2FC43B20253B1FC43B1057587807537
:0D07E0009850758920758DEED28ED2AC2216
:03002300020626AC
:07062600C0E0C0D075D00850
:10062D0030991CC2997960E778626660107860E64F
:10063D0006540F244FF8E6F599C2138002C212300A
:10064D009821AF99C298785FE62410FDE433FC78C9
:10065D0061E66D7001EC600BE606540F243FF8A6C1
:03066D000FC211A8
:05067000D0D0D0E03203
:100823007961E7785F667002D211785FE606540F4C
:06083300243FF8E6FF225D
:1007AD0020131F201205D2128F99227862E606546B
:1007BD000F244FF8A6077962E7786066540F700230
:0307CD00D2132222
:10084E00AE072013FDBE0A057F0D1207ADAF0612CF
:03085E0007AD22C1
:0A0886005395FC5396FC43960322A1
:080675008F298E288D278C26A9
:10067D00E4F52DF52CF52BF52AAF29AE28AD27ACD9
:10068D0026AB2DAA2CA92BA82AC31203D15017E5EE
:10069D002D2401F52DE4352CF52CE4352BF52BE42B
:0606AD00352AF52A80D376
:0106B3002224
:0206B4008F3A7B
:1006B600E4F53EF53DF53CF53BAF3AE4FCFDFEAB1B
:1006C6003EAA3DA93CA83BC31203D15017E53E24E0
:1006D60001F53EE4353DF53DE4353CF53CE4353B7E
:0406E600F53B80D58B
:0106EA0022ED
:10056400E4F529F528F527F526E47F03FEFDFCAB29
:1005740029AA28A927A826C31203D1504BE4F52D94
:10058400F52CF52BF52AE47F32FEFDFCAB2DAA2CCD
:10059400A92BA82AC31203D15017E52D2401F52D48
:1005A400E4352CF52CE4352BF52BE4352AF52A809B
:1005B400D5E5292401F529E43528F528E43527F57E
:0805C40027E43526F52680A18D
:0105CC00220C
:030000000204D81F
:0C04D800787FE4F6D8FD75816202051FF4
:10038200BB010CE58229F582E5833AF583E0225030
:1003920006E92582F8E622BBFE06E92582F8E2227A
:0D03A200E58229F582E5833AF583E4932294
:1003AF00F8BB010DE58229F582E5833AF583E8F084
:1003BF00225006E92582C8F622BBFE05E92582C830
:0203CF00F22218
:1003D100EB9FF5F0EA9E42F0E99D42F0E89C45F082
:0103E10022F9
:10002600E5352429F8E60535227826300F027829A9
:10003600E475F00112040D0203E22008EB7F2ED2D4
:10004600088018EF540F2490D43440D4FF300C0BA2
:10005600EF24BFB41A0050032461FFE53660021591
:10006600360539E53970020538300F0D7826E47506
:10007600F00112040DEF0203FB02084E7403D20FC7
:100086008003E4C20FF5358B268A278928E4F536E6
:10009600F538F539E53660077F2012006180F57581
:1000A60037FFC209C208C20AC20BC20DC20EC21075
:1000B60012002FFF700D300F057F00120072AF394E
:1000C600AE3822B4255FC2D5C20C12002FFF24D051
:1000D600B40A00501A75F00A783630D50508B6FF0E
:1000E6000106C6A426F620D5047002D20B80D924B8
:1000F600CFB41A00EF5004C2E5D20C020272D20944
:1001060080C6D20880C0D20A80BCD2D580BAD20DB1
:1001160080B47F20120061200A077401B5360040C2
:10012600F1120026FF12006102009AD210D20E8050
:1001360095120026FB120026FA120026F94A4B7089
:100146000679437A037BFF200A2EE536602A7E0075
:100156008E8275830012038260060EEE653770F09C
:10016600C2D5EBC0E0EAC0E0E9C0E0EE1202B9D0C9
:10017600E0F9D0E0FAD0E0FB1203E2FF60AAEBC0A0
:10018600E0EAC0E0E9C0E0120061D0E02401F9D065
:10019600E03400FAD0E0FBE5370460DCD537D980DF
:1001A600877BFF7A0279B5D20A809C791080027922
:1001B60008C20EC2108008D2D5790A8004790AC214
:1001C600D5E537047002F537E4FAFDFEFF12002686
:1001D600FC7B08200913120026FD7B1030080A124A
:1001E6000026FE120026FF7B20EC3382D592D550E6
:1001F60013C3E43008069FFFE49EFEE42009039D36
:10020600FDE49CFCE4CBF8C209EC700CCFCECDCC5F
:10021600E824F8F870F38017C3EF33FFEE33FEEDF2
:1002260033FDEC33FCEB33FB994002FB0FD8E9EBD3
:10023600300905F8D0E0C448B209C0E00AEC4D4EDA
:100246004F78207B0070C2EAB5370040BCC0E01290
:1002560002BBD0F0D0E0200904C4C0E0C4B209C09B
:10026600F012004AD0F0D5F0EB02009A12041D01FC
:10027600375301B15801084C01044201B54F01BD85
:0F0286004401BD49011D4301C35501A74601A70E
:100295004501A747036350010C2D01102E01332B97
:1002A500011423013120034C2A00CC480000012B06
:1002B5003F3F3F00790AA2D5200B14300D09B91034
:1002C500020404B9080104A2D5200E02500104203D
:1002D5000A68920AB536005034C0E07F20300B1909
:1002E5007F30A20A720E720D500F120312C20AC29B
:1002F5000EC20DC2107F30800F300D03E9C0E01231
:100305000061300D03D0E0F9D0E0B536CC300D17E3
:100315007F30B9100C1200617F58300C077F788050
:1003250003B90803120061300A057F2D0200617FC1
:10033500202010F87F2B200EF322920A80CF286E02
:10034500756C6C2900D2091200263009F8C20978AB
:100355003630D50108F60200CC2D5043495812001D
:10036500262403B405004001E490035E9312005275
:0D037500743A120052D20B7536040201B129
:1004E400020443E493A3F8E493A34003F68001F2E7
:1004F40008DFF48029E493A3F85407240CC8C33319
:10050400C4540F4420C8834004F456800146F6DFE7
:10051400E4800B0102040810204080900003E47E74
:10052400019360BCA3FF543F30E509541FFEE493DC
:10053400A360010ECF54C025E060A840B8E493A3A3
:10054400FAE493A3F8E493A3C8C582C8CAC583CACE
:10055400F0A3C8C582C8CAC583CADFE9DEE780BE86
:01001F0000E0
:1003E200BB010689828A83E0225002E722BBFE0219
:0903F200E32289828A83E493224C
:1003FB00BB010689828A83F0225002F722BBFE01E1
:02040B00F322DA
:10040D00FAE6FB0808E6F925F0F618E6CA3AF622F0
:10041D00D083D082F8E4937012740193700DA3A36E
:10042D0093F8740193F5828883E473740293686082
:06043D00EFA3A3A380DF82
:00000001FF
